{
  "_format": "hh-sol-artifact-1",
  "contractName": "ERC1132",
  "sourceName": "contracts/token/ERC1132/draft-ERC1132.sol",
  "abi": [
    {
      "inputs": [
        {
          "internalType": "string",
          "name": "name",
          "type": "string"
        },
        {
          "internalType": "string",
          "name": "symbol",
          "type": "string"
        }
      ],
      "stateMutability": "nonpayable",
      "type": "constructor"
    },
    {
      "anonymous": false,
      "inputs": [
        {
          "indexed": true,
          "internalType": "address",
          "name": "owner",
          "type": "address"
        },
        {
          "indexed": true,
          "internalType": "address",
          "name": "spender",
          "type": "address"
        },
        {
          "indexed": false,
          "internalType": "uint256",
          "name": "value",
          "type": "uint256"
        }
      ],
      "name": "Approval",
      "type": "event"
    },
    {
      "anonymous": false,
      "inputs": [
        {
          "indexed": true,
          "internalType": "address",
          "name": "_of",
          "type": "address"
        },
        {
          "indexed": true,
          "internalType": "bytes32",
          "name": "_reason",
          "type": "bytes32"
        },
        {
          "indexed": false,
          "internalType": "uint256",
          "name": "_amount",
          "type": "uint256"
        },
        {
          "indexed": false,
          "internalType": "uint256",
          "name": "_validity",
          "type": "uint256"
        }
      ],
      "name": "Locked",
      "type": "event"
    },
    {
      "anonymous": false,
      "inputs": [
        {
          "indexed": true,
          "internalType": "address",
          "name": "from",
          "type": "address"
        },
        {
          "indexed": true,
          "internalType": "address",
          "name": "to",
          "type": "address"
        },
        {
          "indexed": false,
          "internalType": "uint256",
          "name": "value",
          "type": "uint256"
        }
      ],
      "name": "Transfer",
      "type": "event"
    },
    {
      "anonymous": false,
      "inputs": [
        {
          "indexed": true,
          "internalType": "address",
          "name": "_of",
          "type": "address"
        },
        {
          "indexed": true,
          "internalType": "bytes32",
          "name": "_reason",
          "type": "bytes32"
        },
        {
          "indexed": false,
          "internalType": "uint256",
          "name": "_amount",
          "type": "uint256"
        }
      ],
      "name": "Unlocked",
      "type": "event"
    },
    {
      "inputs": [
        {
          "internalType": "address",
          "name": "owner",
          "type": "address"
        },
        {
          "internalType": "address",
          "name": "spender",
          "type": "address"
        }
      ],
      "name": "allowance",
      "outputs": [
        {
          "internalType": "uint256",
          "name": "",
          "type": "uint256"
        }
      ],
      "stateMutability": "view",
      "type": "function"
    },
    {
      "inputs": [
        {
          "internalType": "address",
          "name": "spender",
          "type": "address"
        },
        {
          "internalType": "uint256",
          "name": "amount",
          "type": "uint256"
        }
      ],
      "name": "approve",
      "outputs": [
        {
          "internalType": "bool",
          "name": "",
          "type": "bool"
        }
      ],
      "stateMutability": "nonpayable",
      "type": "function"
    },
    {
      "inputs": [
        {
          "internalType": "address",
          "name": "account",
          "type": "address"
        }
      ],
      "name": "balanceOf",
      "outputs": [
        {
          "internalType": "uint256",
          "name": "",
          "type": "uint256"
        }
      ],
      "stateMutability": "view",
      "type": "function"
    },
    {
      "inputs": [],
      "name": "decimals",
      "outputs": [
        {
          "internalType": "uint8",
          "name": "",
          "type": "uint8"
        }
      ],
      "stateMutability": "view",
      "type": "function"
    },
    {
      "inputs": [
        {
          "internalType": "address",
          "name": "spender",
          "type": "address"
        },
        {
          "internalType": "uint256",
          "name": "subtractedValue",
          "type": "uint256"
        }
      ],
      "name": "decreaseAllowance",
      "outputs": [
        {
          "internalType": "bool",
          "name": "",
          "type": "bool"
        }
      ],
      "stateMutability": "nonpayable",
      "type": "function"
    },
    {
      "inputs": [
        {
          "internalType": "bytes32",
          "name": "_reason",
          "type": "bytes32"
        },
        {
          "internalType": "uint256",
          "name": "_time",
          "type": "uint256"
        }
      ],
      "name": "extendLock",
      "outputs": [
        {
          "internalType": "bool",
          "name": "",
          "type": "bool"
        }
      ],
      "stateMutability": "nonpayable",
      "type": "function"
    },
    {
      "inputs": [
        {
          "internalType": "address",
          "name": "_of",
          "type": "address"
        }
      ],
      "name": "getUnlockableTokens",
      "outputs": [
        {
          "internalType": "uint256",
          "name": "unlockableTokens",
          "type": "uint256"
        }
      ],
      "stateMutability": "view",
      "type": "function"
    },
    {
      "inputs": [
        {
          "internalType": "address",
          "name": "spender",
          "type": "address"
        },
        {
          "internalType": "uint256",
          "name": "addedValue",
          "type": "uint256"
        }
      ],
      "name": "increaseAllowance",
      "outputs": [
        {
          "internalType": "bool",
          "name": "",
          "type": "bool"
        }
      ],
      "stateMutability": "nonpayable",
      "type": "function"
    },
    {
      "inputs": [
        {
          "internalType": "bytes32",
          "name": "_reason",
          "type": "bytes32"
        },
        {
          "internalType": "uint256",
          "name": "_amount",
          "type": "uint256"
        }
      ],
      "name": "increaseLockAmount",
      "outputs": [
        {
          "internalType": "bool",
          "name": "",
          "type": "bool"
        }
      ],
      "stateMutability": "nonpayable",
      "type": "function"
    },
    {
      "inputs": [
        {
          "internalType": "bytes32",
          "name": "_reason",
          "type": "bytes32"
        },
        {
          "internalType": "uint256",
          "name": "_amount",
          "type": "uint256"
        },
        {
          "internalType": "uint256",
          "name": "_time",
          "type": "uint256"
        }
      ],
      "name": "lock",
      "outputs": [
        {
          "internalType": "bool",
          "name": "",
          "type": "bool"
        }
      ],
      "stateMutability": "nonpayable",
      "type": "function"
    },
    {
      "inputs": [
        {
          "internalType": "address",
          "name": "",
          "type": "address"
        },
        {
          "internalType": "uint256",
          "name": "",
          "type": "uint256"
        }
      ],
      "name": "lockReason",
      "outputs": [
        {
          "internalType": "bytes32",
          "name": "",
          "type": "bytes32"
        }
      ],
      "stateMutability": "view",
      "type": "function"
    },
    {
      "inputs": [
        {
          "internalType": "address",
          "name": "",
          "type": "address"
        },
        {
          "internalType": "bytes32",
          "name": "",
          "type": "bytes32"
        }
      ],
      "name": "locked",
      "outputs": [
        {
          "internalType": "uint256",
          "name": "amount",
          "type": "uint256"
        },
        {
          "internalType": "uint256",
          "name": "validity",
          "type": "uint256"
        },
        {
          "internalType": "bool",
          "name": "claimed",
          "type": "bool"
        }
      ],
      "stateMutability": "view",
      "type": "function"
    },
    {
      "inputs": [],
      "name": "name",
      "outputs": [
        {
          "internalType": "string",
          "name": "",
          "type": "string"
        }
      ],
      "stateMutability": "view",
      "type": "function"
    },
    {
      "inputs": [],
      "name": "symbol",
      "outputs": [
        {
          "internalType": "string",
          "name": "",
          "type": "string"
        }
      ],
      "stateMutability": "view",
      "type": "function"
    },
    {
      "inputs": [
        {
          "internalType": "address",
          "name": "_of",
          "type": "address"
        },
        {
          "internalType": "bytes32",
          "name": "_reason",
          "type": "bytes32"
        }
      ],
      "name": "tokensLocked",
      "outputs": [
        {
          "internalType": "uint256",
          "name": "amount",
          "type": "uint256"
        }
      ],
      "stateMutability": "view",
      "type": "function"
    },
    {
      "inputs": [
        {
          "internalType": "address",
          "name": "_of",
          "type": "address"
        },
        {
          "internalType": "bytes32",
          "name": "_reason",
          "type": "bytes32"
        },
        {
          "internalType": "uint256",
          "name": "_time",
          "type": "uint256"
        }
      ],
      "name": "tokensLockedAtTime",
      "outputs": [
        {
          "internalType": "uint256",
          "name": "amount",
          "type": "uint256"
        }
      ],
      "stateMutability": "view",
      "type": "function"
    },
    {
      "inputs": [
        {
          "internalType": "address",
          "name": "_of",
          "type": "address"
        },
        {
          "internalType": "bytes32",
          "name": "_reason",
          "type": "bytes32"
        }
      ],
      "name": "tokensUnlockable",
      "outputs": [
        {
          "internalType": "uint256",
          "name": "amount",
          "type": "uint256"
        }
      ],
      "stateMutability": "view",
      "type": "function"
    },
    {
      "inputs": [
        {
          "internalType": "address",
          "name": "_of",
          "type": "address"
        }
      ],
      "name": "totalBalanceOf",
      "outputs": [
        {
          "internalType": "uint256",
          "name": "amount",
          "type": "uint256"
        }
      ],
      "stateMutability": "view",
      "type": "function"
    },
    {
      "inputs": [],
      "name": "totalSupply",
      "outputs": [
        {
          "internalType": "uint256",
          "name": "",
          "type": "uint256"
        }
      ],
      "stateMutability": "view",
      "type": "function"
    },
    {
      "inputs": [
        {
          "internalType": "address",
          "name": "recipient",
          "type": "address"
        },
        {
          "internalType": "uint256",
          "name": "amount",
          "type": "uint256"
        }
      ],
      "name": "transfer",
      "outputs": [
        {
          "internalType": "bool",
          "name": "",
          "type": "bool"
        }
      ],
      "stateMutability": "nonpayable",
      "type": "function"
    },
    {
      "inputs": [
        {
          "internalType": "address",
          "name": "sender",
          "type": "address"
        },
        {
          "internalType": "address",
          "name": "recipient",
          "type": "address"
        },
        {
          "internalType": "uint256",
          "name": "amount",
          "type": "uint256"
        }
      ],
      "name": "transferFrom",
      "outputs": [
        {
          "internalType": "bool",
          "name": "",
          "type": "bool"
        }
      ],
      "stateMutability": "nonpayable",
      "type": "function"
    },
    {
      "inputs": [
        {
          "internalType": "address",
          "name": "_to",
          "type": "address"
        },
        {
          "internalType": "bytes32",
          "name": "_reason",
          "type": "bytes32"
        },
        {
          "internalType": "uint256",
          "name": "_amount",
          "type": "uint256"
        },
        {
          "internalType": "uint256",
          "name": "_time",
          "type": "uint256"
        }
      ],
      "name": "transferWithLock",
      "outputs": [
        {
          "internalType": "bool",
          "name": "",
          "type": "bool"
        }
      ],
      "stateMutability": "nonpayable",
      "type": "function"
    },
    {
      "inputs": [
        {
          "internalType": "address",
          "name": "_of",
          "type": "address"
        }
      ],
      "name": "unlock",
      "outputs": [
        {
          "internalType": "uint256",
          "name": "unlockableTokens",
          "type": "uint256"
        }
      ],
      "stateMutability": "nonpayable",
      "type": "function"
    }
  ],
  "bytecode": "0x60806040523480156200001157600080fd5b506040516200177a3803806200177a8339810160408190526200003491620001c7565b8151829082906200004d9060039060208501906200006e565b508051620000639060049060208401906200006e565b505050505062000281565b8280546200007c906200022e565b90600052602060002090601f016020900481019282620000a05760008555620000eb565b82601f10620000bb57805160ff1916838001178555620000eb565b82800160010185558215620000eb579182015b82811115620000eb578251825591602001919060010190620000ce565b50620000f9929150620000fd565b5090565b5b80821115620000f95760008155600101620000fe565b600082601f83011262000125578081fd5b81516001600160401b03808211156200014257620001426200026b565b604051601f8301601f19908116603f011681019082821181831017156200016d576200016d6200026b565b8160405283815260209250868385880101111562000189578485fd5b8491505b83821015620001ac57858201830151818301840152908201906200018d565b83821115620001bd57848385830101525b9695505050505050565b60008060408385031215620001da578182fd5b82516001600160401b0380821115620001f1578384fd5b620001ff8683870162000114565b9350602085015191508082111562000215578283fd5b50620002248582860162000114565b9150509250929050565b600181811c908216806200024357607f821691505b602082108114156200026557634e487b7160e01b600052602260045260246000fd5b50919050565b634e487b7160e01b600052604160045260246000fd5b6114e980620002916000396000f3fe608060405234801561001057600080fd5b506004361061014d5760003560e01c80635294d0e8116100c3578063a457c2d71161007c578063a457c2d7146102a4578063a9059cbb146102b7578063a9dab167146102ca578063ab4a2eb3146102dd578063d71be8db146102f0578063dd62ed3e1461034a5761014d565b80635294d0e81461023d5780635ca48d8c1461025057806370a082311461026357806371d66f001461027657806381fc4d901461028957806395d89b411461029c5761014d565b80632e82aaf2116101155780632e82aaf2146101cf5780632f6c493c146101e2578063313ce567146101f557806339509351146102045780634b0ee02a146102175780634cb5465f1461022a5761014d565b806306fdde0314610152578063095ea7b314610170578063179e91f11461019357806318160ddd146101b457806323b872dd146101bc575b600080fd5b61015a610383565b60405161016791906113e2565b60405180910390f35b61018361017e3660046112e3565b610415565b6040519015158152602001610167565b6101a66101a136600461130c565b61042c565b604051908152602001610167565b6002546101a6565b6101836101ca3660046112a8565b610487565b6101836101dd3660046113b7565b610536565b6101a66101f036600461125c565b6106c7565b60405160128152602001610167565b6101836102123660046112e3565b6108ed565b6101a661022536600461125c565b610929565b61018361023836600461133e565b6109c5565b6101a661024b3660046112e3565b610b72565b6101a661025e3660046112e3565b610bfd565b6101a661027136600461125c565b610c54565b6101a66102843660046112e3565b610c73565b610183610297366004611396565b610ca4565b61015a610d9a565b6101836102b23660046112e3565b610da9565b6101836102c53660046112e3565b610e42565b6101836102d8366004611396565b610e4f565b6101a66102eb36600461125c565b610ed2565b61032d6102fe3660046112e3565b600660209081526000928352604080842090915290825290208054600182015460029092015490919060ff1683565b604080519384526020840192909252151590820152606001610167565b6101a6610358366004611276565b6001600160a01b03918216600090815260016020908152604080832093909416825291909152205490565b6060600380546103929061144d565b80601f01602080910402602001604051908101604052809291908181526020018280546103be9061144d565b801561040b5780601f106103e05761010080835404028352916020019161040b565b820191906000526020600020905b8154815290600101906020018083116103ee57829003601f168201915b5050505050905090565b6000610422338484610f52565b5060015b92915050565b6001600160a01b038316600090815260066020908152604080832085845290915281206001015482101561048057506001600160a01b03831660009081526006602090815260408083208584529091529020545b9392505050565b6000610494848484611076565b6001600160a01b03841660009081526001602090815260408083203384529091529020548281101561051e5760405162461bcd60e51b815260206004820152602860248201527f45524332303a207472616e7366657220616d6f756e74206578636565647320616044820152676c6c6f77616e636560c01b60648201526084015b60405180910390fd5b61052b8533858403610f52565b506001949350505050565b6000806105438342611435565b905061054f3386610bfd565b604080518082019091526015815274151bdad95b9cc8185b1c9958591e481b1bd8dad959605a1b6020820152901561059a5760405162461bcd60e51b815260040161051591906113e2565b506040805180820190915260138152720416d6f756e742063616e206e6f74206265203606c1b6020820152846105e35760405162461bcd60e51b815260040161051591906113e2565b5033600090815260066020908152604080832088845290915290205461062657336000908152600560209081526040822080546001810182559083529120018590555b6106303085610e42565b50604080516060810182528581526020808201848152600083850181815233808352600685528683208c8452855291869020945185559151600185015590516002909301805460ff191693151593909317909255825187815290810184905287927fea90ef40963535482537f0689e05cb8d259e459ebd21530e826702294d0eafdd910160405180910390a3506001949350505050565b60008060005b6001600160a01b03841660009081526005602052604090205481101561085e576001600160a01b0384166000908152600560205260409020805461073b9186918490811061072b57634e487b7160e01b600052603260045260246000fd5b9060005260206000200154610b72565b9150811561084c5761074d8284611435565b6001600160a01b03851660009081526006602090815260408083206005909252822080549396506001939192918590811061079857634e487b7160e01b600052603260045260246000fd5b60009182526020808320919091015483528281019390935260409182018120600201805460ff1916941515949094179093556001600160a01b0387168352600590915290208054829081106107fd57634e487b7160e01b600052603260045260246000fd5b9060005260206000200154846001600160a01b03167f11f87fd5adcd05786919b8b868f59a70d78ae4eb6f305c5927f9c5b1659841a48460405161084391815260200190565b60405180910390a35b8061085681611482565b9150506106cd565b5081156108e75760405163a9059cbb60e01b81526001600160a01b038416600482015260248101839052309063a9059cbb90604401602060405180830381600087803b1580156108ad57600080fd5b505af11580156108c1573d6000803e3d6000fd5b505050506040513d601f19601f820116820180604052508101906108e59190611376565b505b50919050565b3360008181526001602090815260408083206001600160a01b03871684529091528120549091610422918590610924908690611435565b610f52565b600061093482610c54565b905060005b6001600160a01b0383166000908152600560205260409020548110156108e7576001600160a01b038316600090815260056020526040902080546109a79185918490811061099757634e487b7160e01b600052603260045260246000fd5b9060005260206000200154610bfd565b6109b19083611435565b9150806109bd81611482565b915050610939565b6000806109d28342611435565b90506109de8686610bfd565b604080518082019091526015815274151bdad95b9cc8185b1c9958591e481b1bd8dad959605a1b60208201529015610a295760405162461bcd60e51b815260040161051591906113e2565b506040805180820190915260138152720416d6f756e742063616e206e6f74206265203606c1b602082015284610a725760405162461bcd60e51b815260040161051591906113e2565b506001600160a01b0386166000908152600660209081526040808320888452909152902054610ac7576001600160a01b0386166000908152600560209081526040822080546001810182559083529120018590555b610ad13085610e42565b5060408051606081018252858152602080820184815260008385018181526001600160a01b038c16808352600685528683208c8452855291869020945185559151600185015590516002909301805460ff191693151593909317909255825187815290810184905287927fea90ef40963535482537f0689e05cb8d259e459ebd21530e826702294d0eafdd910160405180910390a350600195945050505050565b6001600160a01b03821660009081526006602090815260408083208484529091528120600101544210801590610bcf57506001600160a01b038316600090815260066020908152604080832085845290915290206002015460ff16155b1561042657506001600160a01b03919091166000908152600660209081526040808320938352929052205490565b6001600160a01b038216600090815260066020908152604080832084845290915281206002015460ff1661042657506001600160a01b03919091166000908152600660209081526040808320938352929052205490565b6001600160a01b0381166000908152602081905260409020545b919050565b60056020528160005260406000208181548110610c8f57600080fd5b90600052602060002001600091509150505481565b600080610cb13385610bfd565b116040518060400160405280601081526020016f139bc81d1bdad95b9cc81b1bd8dad95960821b81525090610cf95760405162461bcd60e51b815260040161051591906113e2565b50610d043083610e42565b5033600090815260066020908152604080832086845290915281208054849290610d2f908490611435565b909155505033600081815260066020908152604080832087845282529182902080546001909101548351918252918101919091528592917fea90ef40963535482537f0689e05cb8d259e459ebd21530e826702294d0eafdd910160405180910390a350600192915050565b6060600480546103929061144d565b3360009081526001602090815260408083206001600160a01b038616845290915281205482811015610e2b5760405162461bcd60e51b815260206004820152602560248201527f45524332303a2064656372656173656420616c6c6f77616e63652062656c6f77604482015264207a65726f60d81b6064820152608401610515565b610e383385858403610f52565b5060019392505050565b6000610422338484611076565b600080610e5c3385610bfd565b116040518060400160405280601081526020016f139bc81d1bdad95b9cc81b1bd8dad95960821b81525090610ea45760405162461bcd60e51b815260040161051591906113e2565b5033600090815260066020908152604080832086845290915281206001018054849290610d2f908490611435565b6000805b6001600160a01b0383166000908152600560205260409020548110156108e7576001600160a01b03831660009081526005602052604090208054610f349185918490811061072b57634e487b7160e01b600052603260045260246000fd5b610f3e9083611435565b915080610f4a81611482565b915050610ed6565b6001600160a01b038316610fb45760405162461bcd60e51b8152602060048201526024808201527f45524332303a20617070726f76652066726f6d20746865207a65726f206164646044820152637265737360e01b6064820152608401610515565b6001600160a01b0382166110155760405162461bcd60e51b815260206004820152602260248201527f45524332303a20617070726f766520746f20746865207a65726f206164647265604482015261737360f01b6064820152608401610515565b6001600160a01b0383811660008181526001602090815260408083209487168084529482529182902085905590518481527f8c5be1e5ebec7d5bd14f71427d1e84f3dd0314c0f7b2291e5b200ac8c7c3b925910160405180910390a3505050565b6001600160a01b0383166110da5760405162461bcd60e51b815260206004820152602560248201527f45524332303a207472616e736665722066726f6d20746865207a65726f206164604482015264647265737360d81b6064820152608401610515565b6001600160a01b03821661113c5760405162461bcd60e51b815260206004820152602360248201527f45524332303a207472616e7366657220746f20746865207a65726f206164647260448201526265737360e81b6064820152608401610515565b6001600160a01b038316600090815260208190526040902054818110156111b45760405162461bcd60e51b815260206004820152602660248201527f45524332303a207472616e7366657220616d6f756e7420657863656564732062604482015265616c616e636560d01b6064820152608401610515565b6001600160a01b038085166000908152602081905260408082208585039055918516815290812080548492906111eb908490611435565b92505081905550826001600160a01b0316846001600160a01b03167fddf252ad1be2c89b69c2b068fc378daa952ba7f163c4a11628f55a4df523b3ef8460405161123791815260200190565b60405180910390a350505050565b80356001600160a01b0381168114610c6e57600080fd5b60006020828403121561126d578081fd5b61048082611245565b60008060408385031215611288578081fd5b61129183611245565b915061129f60208401611245565b90509250929050565b6000806000606084860312156112bc578081fd5b6112c584611245565b92506112d360208501611245565b9150604084013590509250925092565b600080604083850312156112f5578182fd5b6112fe83611245565b946020939093013593505050565b600080600060608486031215611320578283fd5b61132984611245565b95602085013595506040909401359392505050565b60008060008060808587031215611353578081fd5b61135c85611245565b966020860135965060408601359560600135945092505050565b600060208284031215611387578081fd5b81518015158114610480578182fd5b600080604083850312156113a8578182fd5b50508035926020909101359150565b6000806000606084860312156113cb578283fd5b505081359360208301359350604090920135919050565b6000602080835283518082850152825b8181101561140e578581018301518582016040015282016113f2565b8181111561141f5783604083870101525b50601f01601f1916929092016040019392505050565b600082198211156114485761144861149d565b500190565b600181811c9082168061146157607f821691505b602082108114156108e757634e487b7160e01b600052602260045260246000fd5b60006000198214156114965761149661149d565b5060010190565b634e487b7160e01b600052601160045260246000fdfea264697066735822122024abeddf5e64315d342b40e1aa5fe8db8423bc84fbffd75fc777e2a56aedd0e464736f6c63430008030033",
  "linkReferences": {},
  "deployedLinkReferences": {}
}